{
  "contractName": "Freelancer",
  "abi": [
    {
      "inputs": [],
      "stateMutability": "nonpayable",
      "type": "constructor"
    },
    {
      "anonymous": false,
      "inputs": [
        {
          "indexed": false,
          "internalType": "address",
          "name": "freelancer",
          "type": "address"
        }
      ],
      "name": "workAccepted",
      "type": "event"
    },
    {
      "anonymous": false,
      "inputs": [],
      "name": "workApproved",
      "type": "event"
    },
    {
      "anonymous": false,
      "inputs": [],
      "name": "workFunded",
      "type": "event"
    },
    {
      "anonymous": false,
      "inputs": [
        {
          "indexed": false,
          "internalType": "address",
          "name": "client",
          "type": "address"
        }
      ],
      "name": "workProposed",
      "type": "event"
    },
    {
      "anonymous": false,
      "inputs": [],
      "name": "workStarted",
      "type": "event"
    },
    {
      "inputs": [],
      "name": "client",
      "outputs": [
        {
          "internalType": "address",
          "name": "",
          "type": "address"
        }
      ],
      "stateMutability": "view",
      "type": "function"
    },
    {
      "inputs": [],
      "name": "freelancer",
      "outputs": [
        {
          "internalType": "address payable",
          "name": "",
          "type": "address"
        }
      ],
      "stateMutability": "view",
      "type": "function"
    },
    {
      "inputs": [
        {
          "internalType": "string",
          "name": "_description",
          "type": "string"
        },
        {
          "internalType": "uint256",
          "name": "_value",
          "type": "uint256"
        }
      ],
      "name": "proposeWork",
      "outputs": [],
      "stateMutability": "nonpayable",
      "type": "function"
    },
    {
      "inputs": [],
      "name": "acceptWork",
      "outputs": [],
      "stateMutability": "nonpayable",
      "type": "function"
    },
    {
      "inputs": [],
      "name": "fundWork",
      "outputs": [],
      "stateMutability": "payable",
      "type": "function"
    },
    {
      "inputs": [],
      "name": "startWork",
      "outputs": [],
      "stateMutability": "nonpayable",
      "type": "function"
    },
    {
      "inputs": [],
      "name": "approveWork",
      "outputs": [],
      "stateMutability": "payable",
      "type": "function"
    }
  ],
  "bytecode": "0x608060405234801561001057600080fd5b50610d67806100206000396000f3fe6080604052600436106100705760003560e01c80634848fb861161004e5780634848fb86146100ce578063a37dda2c146100d8578063d69c136114610103578063ddb3a5321461012c57610070565b806301034979146100755780630b832cb21461008c578063109e94cf146100a3575b600080fd5b34801561008157600080fd5b5061008a610136565b005b34801561009857600080fd5b506100a16102a3565b005b3480156100af57600080fd5b506100b861042a565b6040516100c59190610b45565b60405180910390f35b6100d6610450565b005b3480156100e457600080fd5b506100ed6105d9565b6040516100fa9190610b7b565b60405180910390f35b34801561010f57600080fd5b5061012a60048036038101906101259190610ac4565b6105ff565b005b6101346107cc565b005b600560009054906101000a900473ffffffffffffffffffffffffffffffffffffffff1673ffffffffffffffffffffffffffffffffffffffff163373ffffffffffffffffffffffffffffffffffffffff161461019057600080fd5b60028060048111156101cb577f4e487b7100000000000000000000000000000000000000000000000000000000600052602160045260246000fd5b600060020160009054906101000a900460ff166004811115610216577f4e487b7100000000000000000000000000000000000000000000000000000000600052602160045260246000fd5b1461022057600080fd5b6003600060020160006101000a81548160ff0219169083600481111561026f577f4e487b7100000000000000000000000000000000000000000000000000000000600052602160045260246000fd5b02179055507f79a9e345927c44cdbf651a935c4b402f1ea04e002051345c271b98d41d5ffd1160405160405180910390a150565b600460009054906101000a900473ffffffffffffffffffffffffffffffffffffffff1673ffffffffffffffffffffffffffffffffffffffff163373ffffffffffffffffffffffffffffffffffffffff16146102fd57600080fd5b6000806004811115610338577f4e487b7100000000000000000000000000000000000000000000000000000000600052602160045260246000fd5b600060020160009054906101000a900460ff166004811115610383577f4e487b7100000000000000000000000000000000000000000000000000000000600052602160045260246000fd5b1461038d57600080fd5b33600460006101000a81548173ffffffffffffffffffffffffffffffffffffffff021916908373ffffffffffffffffffffffffffffffffffffffff1602179055507fc978404f2e2bb3c1aa7b249be90d74fa69a7f4571ccabb91ea3f93cb38fe621b600460009054906101000a900473ffffffffffffffffffffffffffffffffffffffff1660405161041f9190610b60565b60405180910390a150565b600560009054906101000a900473ffffffffffffffffffffffffffffffffffffffff1681565b600180600481111561048b577f4e487b7100000000000000000000000000000000000000000000000000000000600052602160045260246000fd5b600060020160009054906101000a900460ff1660048111156104d6577f4e487b7100000000000000000000000000000000000000000000000000000000600052602160045260246000fd5b146104e057600080fd5b600060010154348181146104f357600080fd5b600560009054906101000a900473ffffffffffffffffffffffffffffffffffffffff1673ffffffffffffffffffffffffffffffffffffffff163373ffffffffffffffffffffffffffffffffffffffff161461054d57600080fd5b6002600060020160006101000a81548160ff0219169083600481111561059c577f4e487b7100000000000000000000000000000000000000000000000000000000600052602160045260246000fd5b0217905550346003819055507fca910ec4c9d6940748b3651002013a7e9eb151c53ce260d46aaf2df6ab81e18c60405160405180910390a1505050565b600460009054906101000a900473ffffffffffffffffffffffffffffffffffffffff1681565b600560009054906101000a900473ffffffffffffffffffffffffffffffffffffffff1673ffffffffffffffffffffffffffffffffffffffff163373ffffffffffffffffffffffffffffffffffffffff161461065957600080fd5b33600560006101000a81548173ffffffffffffffffffffffffffffffffffffffff021916908373ffffffffffffffffffffffffffffffffffffffff1602179055506040518060600160405280838152602001828152602001600060048111156106eb577f4e487b7100000000000000000000000000000000000000000000000000000000600052602160045260246000fd5b81525060008082015181600001908051906020019061070b9291906109a4565b506020820151816001015560408201518160020160006101000a81548160ff02191690836004811115610767577f4e487b7100000000000000000000000000000000000000000000000000000000600052602160045260246000fd5b02179055509050507ff2de3d92c60562e74cfd222b38acf4cbeecfd6c8fe8f997ae24f142dedde1ac0600560009054906101000a900473ffffffffffffffffffffffffffffffffffffffff166040516107c09190610b45565b60405180910390a15050565b6003806004811115610807577f4e487b7100000000000000000000000000000000000000000000000000000000600052602160045260246000fd5b600060020160009054906101000a900460ff166004811115610852577f4e487b7100000000000000000000000000000000000000000000000000000000600052602160045260246000fd5b1461085c57600080fd5b600560009054906101000a900473ffffffffffffffffffffffffffffffffffffffff1673ffffffffffffffffffffffffffffffffffffffff163373ffffffffffffffffffffffffffffffffffffffff16146108b657600080fd5b600460009054906101000a900473ffffffffffffffffffffffffffffffffffffffff1673ffffffffffffffffffffffffffffffffffffffff166108fc6003549081150290604051600060405180830381858888f19350505050158015610920573d6000803e3d6000fd5b506004600060020160006101000a81548160ff02191690836004811115610970577f4e487b7100000000000000000000000000000000000000000000000000000000600052602160045260246000fd5b02179055507f2ea2a895310fca619f19b2d0c265483ea15808ad7ce8263f6334d9b845a46fea60405160405180910390a150565b8280546109b090610c8a565b90600052602060002090601f0160209004810192826109d25760008555610a19565b82601f106109eb57805160ff1916838001178555610a19565b82800160010185558215610a19579182015b82811115610a185782518255916020019190600101906109fd565b5b509050610a269190610a2a565b5090565b5b80821115610a43576000816000905550600101610a2b565b5090565b6000610a5a610a5584610bc7565b610b96565b905082815260208101848484011115610a7257600080fd5b610a7d848285610c7b565b509392505050565b600082601f830112610a9657600080fd5b8135610aa6848260208601610a47565b91505092915050565b600081359050610abe81610d1a565b92915050565b60008060408385031215610ad757600080fd5b600083013567ffffffffffffffff811115610af157600080fd5b610afd85828601610a85565b9250506020610b0e85828601610aaf565b9150509250929050565b610b2181610c45565b82525050565b610b3081610c09565b82525050565b610b3f81610bf7565b82525050565b6000602082019050610b5a6000830184610b36565b92915050565b6000602082019050610b756000830184610b18565b92915050565b6000602082019050610b906000830184610b27565b92915050565b6000604051905081810181811067ffffffffffffffff82111715610bbd57610bbc610ceb565b5b8060405250919050565b600067ffffffffffffffff821115610be257610be1610ceb565b5b601f19601f8301169050602081019050919050565b6000610c0282610c1b565b9050919050565b6000610c1482610c1b565b9050919050565b600073ffffffffffffffffffffffffffffffffffffffff82169050919050565b6000819050919050565b6000610c5082610c57565b9050919050565b6000610c6282610c69565b9050919050565b6000610c7482610c1b565b9050919050565b82818337600083830152505050565b60006002820490506001821680610ca257607f821691505b60208210811415610cb657610cb5610cbc565b5b50919050565b7f4e487b7100000000000000000000000000000000000000000000000000000000600052602260045260246000fd5b7f4e487b7100000000000000000000000000000000000000000000000000000000600052604160045260246000fd5b610d2381610c3b565b8114610d2e57600080fd5b5056fea26469706673582212209ab0b5598efa71725c5b73f674e3fc0f7ab62d956ac0ce64cf7a66abecf6a57264736f6c63430008000033",
  "immutableReferences": {},
  "source": "// SPDX-License-Identifier: GPL-3.0\npragma solidity >=0.7.0 <0.9.0;\n\ncontract Freelancer {\n    /* \n    *   1. Clients browse freelancers and suggest work.\n    *   2. Freelancers accept work, and propose a plan of work.\n    *   3. Clients accept the plan of work, and fund the contract.\n    *   4. Freelancers start the work.\n    *   5. Clients approve the approved work.\n    *   6. Freelancers withdraw funds.\n    */\n    enum Status { proposal, accepted, funded, started, approved }\n\n    struct Work {\n        // client's description of work\n        string description;\n        // total payout for the work\n        uint256 value;\n        // status of the work\n        Status status;\n    }\n\n    // Those who know, know\n    Work work;\n\n    // holds funds until work is complete\n    uint256 escrow;\n\n    // \"payable\" vs. \"non-payable\" addresses are defined at in Solidity at compile time.\n    // You can use .transfer(...) and .send(...) on address payable, but not address.\n    address payable public freelancer;\n    address public client;\n\n    event workProposed(address client);\n    event workAccepted(address freelancer);\n    // TODO: We can use events and \"workStageIds\" to manage stage-based work plan + payout\n    event workFunded();\n    event workStarted();\n    event workApproved();\n\n    // TODO: May be useful to initialize some state with contract deployment\n    constructor() {}\n\n    modifier onlyFreelancer() {\n        require(msg.sender == freelancer);\n        _;\n    }\n\n    modifier onlyClient() {\n        require(msg.sender == client);\n        _;\n    }\n\n    modifier checkWorkStatus(Status _status) {\n        require(work.status == _status);\n        _;\n    }\n\n    // \"_\" differentiates between function arguments and global variables\n    modifier sufficientFunds(uint256 _value, uint256 _payment) {\n        require(_payment == _value);\n        _;\n    }\n\n    function proposeWork(string memory _description, uint _value) \n        public\n        onlyClient\n    {\n        client = msg.sender;\n        work = Work(_description, _value, Status.proposal);\n        emit workProposed(client);\n    }\n\n    function acceptWork() \n        public\n        onlyFreelancer\n        checkWorkStatus(Status.proposal)\n    {\n        freelancer = payable(msg.sender);\n        emit workAccepted(freelancer);\n    }\n\n    function fundWork() \n        public\n        payable\n        checkWorkStatus(Status.accepted)\n        sufficientFunds(work.value, msg.value)\n        onlyClient\n    {\n        work.status = Status.funded;\n        escrow = msg.value;\n        emit workFunded();\n    }\n\n    function startWork() \n        public\n        onlyClient \n        checkWorkStatus(Status.funded)\n    {\n        work.status = Status.started;\n        emit workStarted();\n    }\n\n    function approveWork() \n        public\n        payable\n        checkWorkStatus(Status.started)\n        onlyClient\n    {\n        freelancer.transfer(escrow);\n        work.status = Status.approved;\n        emit workApproved();\n    }\n}",
  "sourcePath": "/Users/alexyen/crypto/contractor-crypto/contracts/Freelancer.sol",
  "compiler": {
    "name": "solc",
    "version": "0.8.0+commit.c7dfd78e.Emscripten.clang"
  },
  "schemaVersion": "3.1.0",
  "updatedAt": "2021-08-24T09:06:40.770Z",
  "devdoc": {
    "kind": "dev",
    "methods": {},
    "version": 1
  },
  "userdoc": {
    "kind": "user",
    "methods": {},
    "version": 1
  }
}